{"abi":[{"type":"constructor","inputs":[],"stateMutability":"nonpayable"},{"type":"function","name":"addStake","inputs":[{"name":"tokenId","type":"uint256","internalType":"uint256"}],"outputs":[],"stateMutability":"payable"},{"type":"function","name":"approve","inputs":[{"name":"to","type":"address","internalType":"address"},{"name":"tokenId","type":"uint256","internalType":"uint256"}],"outputs":[],"stateMutability":"nonpayable"},{"type":"function","name":"balanceOf","inputs":[{"name":"owner","type":"address","internalType":"address"}],"outputs":[{"name":"","type":"uint256","internalType":"uint256"}],"stateMutability":"view"},{"type":"function","name":"getAgent","inputs":[{"name":"tokenId","type":"uint256","internalType":"uint256"}],"outputs":[{"name":"","type":"tuple","internalType":"struct AgentRegistry.Agent","components":[{"name":"creditScore","type":"uint256","internalType":"uint256"},{"name":"totalTasks","type":"uint256","internalType":"uint256"},{"name":"successfulTasks","type":"uint256","internalType":"uint256"},{"name":"stake","type":"uint256","internalType":"uint256"},{"name":"active","type":"bool","internalType":"bool"},{"name":"metadataURI","type":"string","internalType":"string"}]}],"stateMutability":"view"},{"type":"function","name":"getApproved","inputs":[{"name":"tokenId","type":"uint256","internalType":"uint256"}],"outputs":[{"name":"","type":"address","internalType":"address"}],"stateMutability":"view"},{"type":"function","name":"getScore","inputs":[{"name":"tokenId","type":"uint256","internalType":"uint256"}],"outputs":[{"name":"","type":"uint256","internalType":"uint256"}],"stateMutability":"view"},{"type":"function","name":"getSuccessRate","inputs":[{"name":"tokenId","type":"uint256","internalType":"uint256"}],"outputs":[{"name":"","type":"uint256","internalType":"uint256"}],"stateMutability":"view"},{"type":"function","name":"isActive","inputs":[{"name":"tokenId","type":"uint256","internalType":"uint256"}],"outputs":[{"name":"","type":"bool","internalType":"bool"}],"stateMutability":"view"},{"type":"function","name":"isApprovedForAll","inputs":[{"name":"owner","type":"address","internalType":"address"},{"name":"operator","type":"address","internalType":"address"}],"outputs":[{"name":"","type":"bool","internalType":"bool"}],"stateMutability":"view"},{"type":"function","name":"name","inputs":[],"outputs":[{"name":"","type":"string","internalType":"string"}],"stateMutability":"view"},{"type":"function","name":"owner","inputs":[],"outputs":[{"name":"","type":"address","internalType":"address"}],"stateMutability":"view"},{"type":"function","name":"ownerOf","inputs":[{"name":"tokenId","type":"uint256","internalType":"uint256"}],"outputs":[{"name":"","type":"address","internalType":"address"}],"stateMutability":"view"},{"type":"function","name":"register","inputs":[],"outputs":[{"name":"","type":"uint256","internalType":"uint256"}],"stateMutability":"payable"},{"type":"function","name":"renounceOwnership","inputs":[],"outputs":[],"stateMutability":"nonpayable"},{"type":"function","name":"safeTransferFrom","inputs":[{"name":"from","type":"address","internalType":"address"},{"name":"to","type":"address","internalType":"address"},{"name":"tokenId","type":"uint256","internalType":"uint256"}],"outputs":[],"stateMutability":"nonpayable"},{"type":"function","name":"safeTransferFrom","inputs":[{"name":"from","type":"address","internalType":"address"},{"name":"to","type":"address","internalType":"address"},{"name":"tokenId","type":"uint256","internalType":"uint256"},{"name":"data","type":"bytes","internalType":"bytes"}],"outputs":[],"stateMutability":"nonpayable"},{"type":"function","name":"setAgentURI","inputs":[{"name":"tokenId","type":"uint256","internalType":"uint256"},{"name":"uri","type":"string","internalType":"string"}],"outputs":[],"stateMutability":"nonpayable"},{"type":"function","name":"setApprovalForAll","inputs":[{"name":"operator","type":"address","internalType":"address"},{"name":"approved","type":"bool","internalType":"bool"}],"outputs":[],"stateMutability":"nonpayable"},{"type":"function","name":"supportsInterface","inputs":[{"name":"interfaceId","type":"bytes4","internalType":"bytes4"}],"outputs":[{"name":"","type":"bool","internalType":"bool"}],"stateMutability":"view"},{"type":"function","name":"symbol","inputs":[],"outputs":[{"name":"","type":"string","internalType":"string"}],"stateMutability":"view"},{"type":"function","name":"tokenURI","inputs":[{"name":"tokenId","type":"uint256","internalType":"uint256"}],"outputs":[{"name":"","type":"string","internalType":"string"}],"stateMutability":"view"},{"type":"function","name":"transferFrom","inputs":[{"name":"from","type":"address","internalType":"address"},{"name":"to","type":"address","internalType":"address"},{"name":"tokenId","type":"uint256","internalType":"uint256"}],"outputs":[],"stateMutability":"nonpayable"},{"type":"function","name":"transferOwnership","inputs":[{"name":"newOwner","type":"address","internalType":"address"}],"outputs":[],"stateMutability":"nonpayable"},{"type":"function","name":"updateScore","inputs":[{"name":"tokenId","type":"uint256","internalType":"uint256"},{"name":"success","type":"bool","internalType":"bool"}],"outputs":[],"stateMutability":"nonpayable"},{"type":"event","name":"AgentRegistered","inputs":[{"name":"tokenId","type":"uint256","indexed":true,"internalType":"uint256"},{"name":"owner","type":"address","indexed":true,"internalType":"address"},{"name":"stake","type":"uint256","indexed":false,"internalType":"uint256"}],"anonymous":false},{"type":"event","name":"Approval","inputs":[{"name":"owner","type":"address","indexed":true,"internalType":"address"},{"name":"approved","type":"address","indexed":true,"internalType":"address"},{"name":"tokenId","type":"uint256","indexed":true,"internalType":"uint256"}],"anonymous":false},{"type":"event","name":"ApprovalForAll","inputs":[{"name":"owner","type":"address","indexed":true,"internalType":"address"},{"name":"operator","type":"address","indexed":true,"internalType":"address"},{"name":"approved","type":"bool","indexed":false,"internalType":"bool"}],"anonymous":false},{"type":"event","name":"MetadataUpdated","inputs":[{"name":"tokenId","type":"uint256","indexed":true,"internalType":"uint256"},{"name":"uri","type":"string","indexed":false,"internalType":"string"}],"anonymous":false},{"type":"event","name":"OwnershipTransferred","inputs":[{"name":"previousOwner","type":"address","indexed":true,"internalType":"address"},{"name":"newOwner","type":"address","indexed":true,"internalType":"address"}],"anonymous":false},{"type":"event","name":"ScoreUpdated","inputs":[{"name":"tokenId","type":"uint256","indexed":true,"internalType":"uint256"},{"name":"newScore","type":"uint256","indexed":false,"internalType":"uint256"}],"anonymous":false},{"type":"event","name":"StakeAdded","inputs":[{"name":"tokenId","type":"uint256","indexed":true,"internalType":"uint256"},{"name":"amount","type":"uint256","indexed":false,"internalType":"uint256"}],"anonymous":false},{"type":"event","name":"Transfer","inputs":[{"name":"from","type":"address","indexed":true,"internalType":"address"},{"name":"to","type":"address","indexed":true,"internalType":"address"},{"name":"tokenId","type":"uint256","indexed":true,"internalType":"uint256"}],"anonymous":false},{"type":"error","name":"ERC721IncorrectOwner","inputs":[{"name":"sender","type":"address","internalType":"address"},{"name":"tokenId","type":"uint256","internalType":"uint256"},{"name":"owner","type":"address","internalType":"address"}]},{"type":"error","name":"ERC721InsufficientApproval","inputs":[{"name":"operator","type":"address","internalType":"address"},{"name":"tokenId","type":"uint256","internalType":"uint256"}]},{"type":"error","name":"ERC721InvalidApprover","inputs":[{"name":"approver","type":"address","internalType":"address"}]},{"type":"error","name":"ERC721InvalidOperator","inputs":[{"name":"operator","type":"address","internalType":"address"}]},{"type":"error","name":"ERC721InvalidOwner","inputs":[{"name":"owner","type":"address","internalType":"address"}]},{"type":"error","name":"ERC721InvalidReceiver","inputs":[{"name":"receiver","type":"address","internalType":"address"}]},{"type":"error","name":"ERC721InvalidSender","inputs":[{"name":"sender","type":"address","internalType":"address"}]},{"type":"error","name":"ERC721NonexistentToken","inputs":[{"name":"tokenId","type":"uint256","internalType":"uint256"}]},{"type":"error","name":"NotActive","inputs":[]},{"type":"error","name":"NotOwner","inputs":[]},{"type":"error","name":"OwnableInvalidOwner","inputs":[{"name":"owner","type":"address","internalType":"address"}]},{"type":"error","name":"OwnableUnauthorizedAccount","inputs":[{"name":"account","type":"address","internalType":"address"}]}],"bytecode":{"object":"0x608060405234801561000f575f5ffd5b50336040518060400160405280600881526020017f4149204167656e740000000000000000000000000000000000000000000000008152506040518060400160405280600381526020017f4149410000000000000000000000000000000000000000000000000000000000815250815f908161008b9190610423565b50806001908161009b9190610423565b5050505f73ffffffffffffffffffffffffffffffffffffffff168173ffffffffffffffffffffffffffffffffffffffff160361010e575f6040517f1e4fbdf70000000000000000000000000000000000000000000000000000000081526004016101059190610531565b60405180910390fd5b61011d8161012360201b60201c565b5061054a565b5f60065f9054906101000a900473ffffffffffffffffffffffffffffffffffffffff1690508160065f6101000a81548173ffffffffffffffffffffffffffffffffffffffff021916908373ffffffffffffffffffffffffffffffffffffffff1602179055508173ffffffffffffffffffffffffffffffffffffffff168173ffffffffffffffffffffffffffffffffffffffff167f8be0079c531659141344cd1fd0a4f28419497f9722a3daafe3b4186f6b6457e060405160405180910390a35050565b5f81519050919050565b7f4e487b71000000000000000000000000000000000000000000000000000000005f52604160045260245ffd5b7f4e487b71000000000000000000000000000000000000000000000000000000005f52602260045260245ffd5b5f600282049050600182168061026157607f821691505b6020821081036102745761027361021d565b5b50919050565b5f819050815f5260205f209050919050565b5f6020601f8301049050919050565b5f82821b905092915050565b5f600883026102d67fffffffffffffffffffffffffffffffffffffffffffffffffffffffffffffffff8261029b565b6102e0868361029b565b95508019841693508086168417925050509392505050565b5f819050919050565b5f819050919050565b5f61032461031f61031a846102f8565b610301565b6102f8565b9050919050565b5f819050919050565b61033d8361030a565b6103516103498261032b565b8484546102a7565b825550505050565b5f5f905090565b610368610359565b610373818484610334565b505050565b5b818110156103965761038b5f82610360565b600181019050610379565b5050565b601f8211156103db576103ac8161027a565b6103b58461028c565b810160208510156103c4578190505b6103d86103d08561028c565b830182610378565b50505b505050565b5f82821c905092915050565b5f6103fb5f19846008026103e0565b1980831691505092915050565b5f61041383836103ec565b9150826002028217905092915050565b61042c826101e6565b67ffffffffffffffff811115610445576104446101f0565b5b61044f825461024a565b61045a82828561039a565b5f60209050601f83116001811461048b575f8415610479578287015190505b6104838582610408565b8655506104ea565b601f1984166104998661027a565b5f5b828110156104c05784890151825560018201915060208501945060208101905061049b565b868310156104dd57848901516104d9601f8916826103ec565b8355505b6001600288020188555050505b505050505050565b5f73ffffffffffffffffffffffffffffffffffffffff82169050919050565b5f61051b826104f2565b9050919050565b61052b81610511565b82525050565b5f6020820190506105445f830184610522565b92915050565b612d56806105575f395ff3fe60806040526004361061014a575f3560e01c8063715018a6116100b5578063a2c161691161006e578063a2c16169146104a8578063b88d4fde146104d0578063c87b56dd146104f8578063e985e9c514610534578063eb4f16b514610570578063f2fde38b1461058c5761014a565b8063715018a61461039e57806382afd23b146103b45780638a650841146103f05780638da5cb5b1461042c57806395d89b4114610456578063a22cb465146104805761014a565b80631aa3a008116101075780631aa3a0081461027c57806323b872dd1461029a5780632de5aaf7146102c257806342842e0e146102fe5780636352211e1461032657806370a08231146103625761014a565b806301ffc9a71461014e57806306fdde031461018a578063081812fc146101b4578063095ea7b3146101f05780630af28bd3146102185780630e1af57b14610240575b5f5ffd5b348015610159575f5ffd5b50610174600480360381019061016f9190611f7b565b6105b4565b6040516101819190611fc0565b60405180910390f35b348015610195575f5ffd5b5061019e610695565b6040516101ab9190612049565b60405180910390f35b3480156101bf575f5ffd5b506101da60048036038101906101d5919061209c565b610724565b6040516101e79190612106565b60405180910390f35b3480156101fb575f5ffd5b5061021660048036038101906102119190612149565b61073f565b005b348015610223575f5ffd5b5061023e600480360381019061023991906121e8565b610755565b005b34801561024b575f5ffd5b506102666004803603810190610261919061209c565b610827565b6040516102739190612254565b60405180910390f35b610284610843565b6040516102919190612254565b60405180910390f35b3480156102a5575f5ffd5b506102c060048036038101906102bb919061226d565b61096f565b005b3480156102cd575f5ffd5b506102e860048036038101906102e3919061209c565b610a6e565b6040516102f591906123a9565b60405180910390f35b348015610309575f5ffd5b50610324600480360381019061031f919061226d565b610b6a565b005b348015610331575f5ffd5b5061034c6004803603810190610347919061209c565b610b89565b6040516103599190612106565b60405180910390f35b34801561036d575f5ffd5b50610388600480360381019061038391906123c9565b610b9a565b6040516103959190612254565b60405180910390f35b3480156103a9575f5ffd5b506103b2610c50565b005b3480156103bf575f5ffd5b506103da60048036038101906103d5919061209c565b610c63565b6040516103e79190611fc0565b60405180910390f35b3480156103fb575f5ffd5b506104166004803603810190610411919061209c565b610c8c565b6040516104239190612254565b60405180910390f35b348015610437575f5ffd5b50610440610dba565b60405161044d9190612106565b60405180910390f35b348015610461575f5ffd5b5061046a610de2565b6040516104779190612049565b60405180910390f35b34801561048b575f5ffd5b506104a660048036038101906104a1919061241e565b610e72565b005b3480156104b3575f5ffd5b506104ce60048036038101906104c9919061245c565b610e88565b005b3480156104db575f5ffd5b506104f660048036038101906104f191906125c2565b610faa565b005b348015610503575f5ffd5b5061051e6004803603810190610519919061209c565b610fcf565b60405161052b9190612049565b60405180910390f35b34801561053f575f5ffd5b5061055a60048036038101906105559190612642565b611073565b6040516105679190611fc0565b60405180910390f35b61058a6004803603810190610585919061209c565b611101565b005b348015610597575f5ffd5b506105b260048036038101906105ad91906123c9565b6111d5565b005b5f7f80ac58cd000000000000000000000000000000000000000000000000000000007bffffffffffffffffffffffffffffffffffffffffffffffffffffffff1916827bffffffffffffffffffffffffffffffffffffffffffffffffffffffff1916148061067e57507f5b5e139f000000000000000000000000000000000000000000000000000000007bffffffffffffffffffffffffffffffffffffffffffffffffffffffff1916827bffffffffffffffffffffffffffffffffffffffffffffffffffffffff1916145b8061068e575061068d82611259565b5b9050919050565b60605f80546106a3906126ad565b80601f01602080910402602001604051908101604052809291908181526020018280546106cf906126ad565b801561071a5780601f106106f15761010080835404028352916020019161071a565b820191905f5260205f20905b8154815290600101906020018083116106fd57829003601f168201915b5050505050905090565b5f61072e826112c2565b5061073882611348565b9050919050565b610751828261074c611381565b611388565b5050565b823373ffffffffffffffffffffffffffffffffffffffff1661077682610b89565b73ffffffffffffffffffffffffffffffffffffffff16146107c3576040517f30cd747100000000000000000000000000000000000000000000000000000000815260040160405180910390fd5b828260085f8781526020019081526020015f2060050191826107e6929190612887565b50837f459157ba24c7ab9878b165ef465fa6ae2ab42bcd8445f576be378768b0c473098484604051610819929190612980565b60405180910390a250505050565b5f60085f8381526020019081526020015f205f01549050919050565b5f60075f815480929190610856906129cf565b91905055505f600754905061086b338261139a565b6040518060c00160405280606481526020015f81526020015f815260200134815260200160011515815260200160405180602001604052805f81525081525060085f8381526020019081526020015f205f820151815f01556020820151816001015560408201518160020155606082015181600301556080820151816004015f6101000a81548160ff02191690831515021790555060a08201518160050190816109159190612a16565b509050503373ffffffffffffffffffffffffffffffffffffffff16817f84a8073a2f017caf6bc071d3399adcd0aed001983f1e6e44bc40ef6c98be01a1346040516109609190612254565b60405180910390a38091505090565b5f73ffffffffffffffffffffffffffffffffffffffff168273ffffffffffffffffffffffffffffffffffffffff16036109df575f6040517f64a0ae920000000000000000000000000000000000000000000000000000000081526004016109d69190612106565b60405180910390fd5b5f6109f283836109ed611381565b61148d565b90508373ffffffffffffffffffffffffffffffffffffffff168173ffffffffffffffffffffffffffffffffffffffff1614610a68578382826040517f64283d7b000000000000000000000000000000000000000000000000000000008152600401610a5f93929190612ae5565b60405180910390fd5b50505050565b610a76611ee2565b60085f8381526020019081526020015f206040518060c00160405290815f8201548152602001600182015481526020016002820154815260200160038201548152602001600482015f9054906101000a900460ff16151515158152602001600582018054610ae3906126ad565b80601f0160208091040260200160405190810160405280929190818152602001828054610b0f906126ad565b8015610b5a5780601f10610b3157610100808354040283529160200191610b5a565b820191905f5260205f20905b815481529060010190602001808311610b3d57829003601f168201915b5050505050815250509050919050565b610b8483838360405180602001604052805f815250610faa565b505050565b5f610b93826112c2565b9050919050565b5f5f73ffffffffffffffffffffffffffffffffffffffff168273ffffffffffffffffffffffffffffffffffffffff1603610c0b575f6040517f89c62b64000000000000000000000000000000000000000000000000000000008152600401610c029190612106565b60405180910390fd5b60035f8373ffffffffffffffffffffffffffffffffffffffff1673ffffffffffffffffffffffffffffffffffffffff1681526020019081526020015f20549050919050565b610c58611698565b610c615f61171f565b565b5f60085f8381526020019081526020015f206004015f9054906101000a900460ff169050919050565b5f5f60085f8481526020019081526020015f206040518060c00160405290815f8201548152602001600182015481526020016002820154815260200160038201548152602001600482015f9054906101000a900460ff16151515158152602001600582018054610cfb906126ad565b80601f0160208091040260200160405190810160405280929190818152602001828054610d27906126ad565b8015610d725780601f10610d4957610100808354040283529160200191610d72565b820191905f5260205f20905b815481529060010190602001808311610d5557829003601f168201915b50505050508152505090505f816020015103610d91575f915050610db5565b806020015160648260400151610da79190612b1a565b610db19190612b88565b9150505b919050565b5f60065f9054906101000a900473ffffffffffffffffffffffffffffffffffffffff16905090565b606060018054610df1906126ad565b80601f0160208091040260200160405190810160405280929190818152602001828054610e1d906126ad565b8015610e685780601f10610e3f57610100808354040283529160200191610e68565b820191905f5260205f20905b815481529060010190602001808311610e4b57829003601f168201915b5050505050905090565b610e84610e7d611381565b83836117e2565b5050565b610e90611698565b5f60085f8481526020019081526020015f209050806004015f9054906101000a900460ff16610eeb576040517f80cb55e200000000000000000000000000000000000000000000000000000000815260040160405180910390fd5b806001015f815480929190610eff906129cf565b91905055508115610f4257806002015f815480929190610f1e906129cf565b91905055506005815f015f828254610f369190612bb8565b92505081905550610f6a565b6005815f01541115610f69576005815f015f828254610f619190612beb565b925050819055505b5b827fefd5a7f141ae02cd40bc84ffe6ebb58811cb61dfd017746842a005c78bfed852825f0154604051610f9d9190612254565b60405180910390a2505050565b610fb584848461096f565b610fc9610fc0611381565b858585856119bb565b50505050565b606060085f8381526020019081526020015f206005018054610ff0906126ad565b80601f016020809104026020016040519081016040528092919081815260200182805461101c906126ad565b80156110675780601f1061103e57610100808354040283529160200191611067565b820191905f5260205f20905b81548152906001019060200180831161104a57829003601f168201915b50505050509050919050565b5f60055f8473ffffffffffffffffffffffffffffffffffffffff1673ffffffffffffffffffffffffffffffffffffffff1681526020019081526020015f205f8373ffffffffffffffffffffffffffffffffffffffff1673ffffffffffffffffffffffffffffffffffffffff1681526020019081526020015f205f9054906101000a900460ff16905092915050565b803373ffffffffffffffffffffffffffffffffffffffff1661112282610b89565b73ffffffffffffffffffffffffffffffffffffffff161461116f576040517f30cd747100000000000000000000000000000000000000000000000000000000815260040160405180910390fd5b3460085f8481526020019081526020015f206003015f8282546111929190612bb8565b92505081905550817f233959ec4291f8482a488d390a7ada24c9edfec73a9b9af88d3a44954fd2771a346040516111c99190612254565b60405180910390a25050565b6111dd611698565b5f73ffffffffffffffffffffffffffffffffffffffff168173ffffffffffffffffffffffffffffffffffffffff160361124d575f6040517f1e4fbdf70000000000000000000000000000000000000000000000000000000081526004016112449190612106565b60405180910390fd5b6112568161171f565b50565b5f7f01ffc9a7000000000000000000000000000000000000000000000000000000007bffffffffffffffffffffffffffffffffffffffffffffffffffffffff1916827bffffffffffffffffffffffffffffffffffffffffffffffffffffffff1916149050919050565b5f5f6112cd83611b67565b90505f73ffffffffffffffffffffffffffffffffffffffff168173ffffffffffffffffffffffffffffffffffffffff160361133f57826040517f7e2732890000000000000000000000000000000000000000000000000000000081526004016113369190612254565b60405180910390fd5b80915050919050565b5f60045f8381526020019081526020015f205f9054906101000a900473ffffffffffffffffffffffffffffffffffffffff169050919050565b5f33905090565b6113958383836001611ba0565b505050565b5f73ffffffffffffffffffffffffffffffffffffffff168273ffffffffffffffffffffffffffffffffffffffff160361140a575f6040517f64a0ae920000000000000000000000000000000000000000000000000000000081526004016114019190612106565b60405180910390fd5b5f61141683835f61148d565b90505f73ffffffffffffffffffffffffffffffffffffffff168173ffffffffffffffffffffffffffffffffffffffff1614611488575f6040517f73c6ac6e00000000000000000000000000000000000000000000000000000000815260040161147f9190612106565b60405180910390fd5b505050565b5f5f61149884611b67565b90505f73ffffffffffffffffffffffffffffffffffffffff168373ffffffffffffffffffffffffffffffffffffffff16146114d9576114d8818486611d5f565b5b5f73ffffffffffffffffffffffffffffffffffffffff168173ffffffffffffffffffffffffffffffffffffffff1614611564576115185f855f5f611ba0565b600160035f8373ffffffffffffffffffffffffffffffffffffffff1673ffffffffffffffffffffffffffffffffffffffff1681526020019081526020015f205f82825403925050819055505b5f73ffffffffffffffffffffffffffffffffffffffff168573ffffffffffffffffffffffffffffffffffffffff16146115e357600160035f8773ffffffffffffffffffffffffffffffffffffffff1673ffffffffffffffffffffffffffffffffffffffff1681526020019081526020015f205f82825401925050819055505b8460025f8681526020019081526020015f205f6101000a81548173ffffffffffffffffffffffffffffffffffffffff021916908373ffffffffffffffffffffffffffffffffffffffff160217905550838573ffffffffffffffffffffffffffffffffffffffff168273ffffffffffffffffffffffffffffffffffffffff167fddf252ad1be2c89b69c2b068fc378daa952ba7f163c4a11628f55a4df523b3ef60405160405180910390a4809150509392505050565b6116a0611381565b73ffffffffffffffffffffffffffffffffffffffff166116be610dba565b73ffffffffffffffffffffffffffffffffffffffff161461171d576116e1611381565b6040517f118cdaa70000000000000000000000000000000000000000000000000000000081526004016117149190612106565b60405180910390fd5b565b5f60065f9054906101000a900473ffffffffffffffffffffffffffffffffffffffff1690508160065f6101000a81548173ffffffffffffffffffffffffffffffffffffffff021916908373ffffffffffffffffffffffffffffffffffffffff1602179055508173ffffffffffffffffffffffffffffffffffffffff168173ffffffffffffffffffffffffffffffffffffffff167f8be0079c531659141344cd1fd0a4f28419497f9722a3daafe3b4186f6b6457e060405160405180910390a35050565b5f73ffffffffffffffffffffffffffffffffffffffff168373ffffffffffffffffffffffffffffffffffffffff1603611852575f6040517fa9fbf51f0000000000000000000000000000000000000000000000000000000081526004016118499190612106565b60405180910390fd5b5f73ffffffffffffffffffffffffffffffffffffffff168273ffffffffffffffffffffffffffffffffffffffff16036118c257816040517f5b08ba180000000000000000000000000000000000000000000000000000000081526004016118b99190612106565b60405180910390fd5b8060055f8573ffffffffffffffffffffffffffffffffffffffff1673ffffffffffffffffffffffffffffffffffffffff1681526020019081526020015f205f8473ffffffffffffffffffffffffffffffffffffffff1673ffffffffffffffffffffffffffffffffffffffff1681526020019081526020015f205f6101000a81548160ff0219169083151502179055508173ffffffffffffffffffffffffffffffffffffffff168373ffffffffffffffffffffffffffffffffffffffff167f17307eab39ab6107e8899845ad3d59bd9653f200f220920489ca2b5937696c31836040516119ae9190611fc0565b60405180910390a3505050565b5f8373ffffffffffffffffffffffffffffffffffffffff163b1115611b60578273ffffffffffffffffffffffffffffffffffffffff1663150b7a02868685856040518563ffffffff1660e01b8152600401611a199493929190612c70565b6020604051808303815f875af1925050508015611a5457506040513d601f19601f82011682018060405250810190611a519190612cce565b60015b611ad5573d805f8114611a82576040519150601f19603f3d011682016040523d82523d5f602084013e611a87565b606091505b505f815103611acd57836040517f64a0ae92000000000000000000000000000000000000000000000000000000008152600401611ac49190612106565b60405180910390fd5b805160208201fd5b63150b7a0260e01b7bffffffffffffffffffffffffffffffffffffffffffffffffffffffff1916817bffffffffffffffffffffffffffffffffffffffffffffffffffffffff191614611b5e57836040517f64a0ae92000000000000000000000000000000000000000000000000000000008152600401611b559190612106565b60405180910390fd5b505b5050505050565b5f60025f8381526020019081526020015f205f9054906101000a900473ffffffffffffffffffffffffffffffffffffffff169050919050565b8080611bd857505f73ffffffffffffffffffffffffffffffffffffffff168273ffffffffffffffffffffffffffffffffffffffff1614155b15611d0a575f611be7846112c2565b90505f73ffffffffffffffffffffffffffffffffffffffff168373ffffffffffffffffffffffffffffffffffffffff1614158015611c5157508273ffffffffffffffffffffffffffffffffffffffff168173ffffffffffffffffffffffffffffffffffffffff1614155b8015611c645750611c628184611073565b155b15611ca657826040517fa9fbf51f000000000000000000000000000000000000000000000000000000008152600401611c9d9190612106565b60405180910390fd5b8115611d0857838573ffffffffffffffffffffffffffffffffffffffff168273ffffffffffffffffffffffffffffffffffffffff167f8c5be1e5ebec7d5bd14f71427d1e84f3dd0314c0f7b2291e5b200ac8c7c3b92560405160405180910390a45b505b8360045f8581526020019081526020015f205f6101000a81548173ffffffffffffffffffffffffffffffffffffffff021916908373ffffffffffffffffffffffffffffffffffffffff16021790555050505050565b611d6a838383611e22565b611e1d575f73ffffffffffffffffffffffffffffffffffffffff168373ffffffffffffffffffffffffffffffffffffffff1603611dde57806040517f7e273289000000000000000000000000000000000000000000000000000000008152600401611dd59190612254565b60405180910390fd5b81816040517f177e802f000000000000000000000000000000000000000000000000000000008152600401611e14929190612cf9565b60405180910390fd5b505050565b5f5f73ffffffffffffffffffffffffffffffffffffffff168373ffffffffffffffffffffffffffffffffffffffff1614158015611ed957508273ffffffffffffffffffffffffffffffffffffffff168473ffffffffffffffffffffffffffffffffffffffff161480611e9a5750611e998484611073565b5b80611ed857508273ffffffffffffffffffffffffffffffffffffffff16611ec083611348565b73ffffffffffffffffffffffffffffffffffffffff16145b5b90509392505050565b6040518060c001604052805f81526020015f81526020015f81526020015f81526020015f15158152602001606081525090565b5f604051905090565b5f5ffd5b5f5ffd5b5f7fffffffff0000000000000000000000000000000000000000000000000000000082169050919050565b611f5a81611f26565b8114611f64575f5ffd5b50565b5f81359050611f7581611f51565b92915050565b5f60208284031215611f9057611f8f611f1e565b5b5f611f9d84828501611f67565b91505092915050565b5f8115159050919050565b611fba81611fa6565b82525050565b5f602082019050611fd35f830184611fb1565b92915050565b5f81519050919050565b5f82825260208201905092915050565b8281835e5f83830152505050565b5f601f19601f8301169050919050565b5f61201b82611fd9565b6120258185611fe3565b9350612035818560208601611ff3565b61203e81612001565b840191505092915050565b5f6020820190508181035f8301526120618184612011565b905092915050565b5f819050919050565b61207b81612069565b8114612085575f5ffd5b50565b5f8135905061209681612072565b92915050565b5f602082840312156120b1576120b0611f1e565b5b5f6120be84828501612088565b91505092915050565b5f73ffffffffffffffffffffffffffffffffffffffff82169050919050565b5f6120f0826120c7565b9050919050565b612100816120e6565b82525050565b5f6020820190506121195f8301846120f7565b92915050565b612128816120e6565b8114612132575f5ffd5b50565b5f813590506121438161211f565b92915050565b5f5f6040838503121561215f5761215e611f1e565b5b5f61216c85828601612135565b925050602061217d85828601612088565b9150509250929050565b5f5ffd5b5f5ffd5b5f5ffd5b5f5f83601f8401126121a8576121a7612187565b5b8235905067ffffffffffffffff8111156121c5576121c461218b565b5b6020830191508360018202830111156121e1576121e061218f565b5b9250929050565b5f5f5f604084860312156121ff576121fe611f1e565b5b5f61220c86828701612088565b935050602084013567ffffffffffffffff81111561222d5761222c611f22565b5b61223986828701612193565b92509250509250925092565b61224e81612069565b82525050565b5f6020820190506122675f830184612245565b92915050565b5f5f5f6060848603121561228457612283611f1e565b5b5f61229186828701612135565b93505060206122a286828701612135565b92505060406122b386828701612088565b9150509250925092565b6122c681612069565b82525050565b6122d581611fa6565b82525050565b5f82825260208201905092915050565b5f6122f582611fd9565b6122ff81856122db565b935061230f818560208601611ff3565b61231881612001565b840191505092915050565b5f60c083015f8301516123385f8601826122bd565b50602083015161234b60208601826122bd565b50604083015161235e60408601826122bd565b50606083015161237160608601826122bd565b50608083015161238460808601826122cc565b5060a083015184820360a086015261239c82826122eb565b9150508091505092915050565b5f6020820190508181035f8301526123c18184612323565b905092915050565b5f602082840312156123de576123dd611f1e565b5b5f6123eb84828501612135565b91505092915050565b6123fd81611fa6565b8114612407575f5ffd5b50565b5f81359050612418816123f4565b92915050565b5f5f6040838503121561243457612433611f1e565b5b5f61244185828601612135565b92505060206124528582860161240a565b9150509250929050565b5f5f6040838503121561247257612471611f1e565b5b5f61247f85828601612088565b92505060206124908582860161240a565b9150509250929050565b5f5ffd5b7f4e487b71000000000000000000000000000000000000000000000000000000005f52604160045260245ffd5b6124d482612001565b810181811067ffffffffffffffff821117156124f3576124f261249e565b5b80604052505050565b5f612505611f15565b905061251182826124cb565b919050565b5f67ffffffffffffffff8211156125305761252f61249e565b5b61253982612001565b9050602081019050919050565b828183375f83830152505050565b5f61256661256184612516565b6124fc565b9050828152602081018484840111156125825761258161249a565b5b61258d848285612546565b509392505050565b5f82601f8301126125a9576125a8612187565b5b81356125b9848260208601612554565b91505092915050565b5f5f5f5f608085870312156125da576125d9611f1e565b5b5f6125e787828801612135565b94505060206125f887828801612135565b935050604061260987828801612088565b925050606085013567ffffffffffffffff81111561262a57612629611f22565b5b61263687828801612595565b91505092959194509250565b5f5f6040838503121561265857612657611f1e565b5b5f61266585828601612135565b925050602061267685828601612135565b9150509250929050565b7f4e487b71000000000000000000000000000000000000000000000000000000005f52602260045260245ffd5b5f60028204905060018216806126c457607f821691505b6020821081036126d7576126d6612680565b5b50919050565b5f82905092915050565b5f819050815f5260205f209050919050565b5f6020601f8301049050919050565b5f82821b905092915050565b5f600883026127437fffffffffffffffffffffffffffffffffffffffffffffffffffffffffffffffff82612708565b61274d8683612708565b95508019841693508086168417925050509392505050565b5f819050919050565b5f61278861278361277e84612069565b612765565b612069565b9050919050565b5f819050919050565b6127a18361276e565b6127b56127ad8261278f565b848454612714565b825550505050565b5f5f905090565b6127cc6127bd565b6127d7818484612798565b505050565b5b818110156127fa576127ef5f826127c4565b6001810190506127dd565b5050565b601f82111561283f57612810816126e7565b612819846126f9565b81016020851015612828578190505b61283c612834856126f9565b8301826127dc565b50505b505050565b5f82821c905092915050565b5f61285f5f1984600802612844565b1980831691505092915050565b5f6128778383612850565b9150826002028217905092915050565b61289183836126dd565b67ffffffffffffffff8111156128aa576128a961249e565b5b6128b482546126ad565b6128bf8282856127fe565b5f601f8311600181146128ec575f84156128da578287013590505b6128e4858261286c565b86555061294b565b601f1984166128fa866126e7565b5f5b82811015612921578489013582556001820191506020850194506020810190506128fc565b8683101561293e578489013561293a601f891682612850565b8355505b6001600288020188555050505b50505050505050565b5f61295f8385611fe3565b935061296c838584612546565b61297583612001565b840190509392505050565b5f6020820190508181035f830152612999818486612954565b90509392505050565b7f4e487b71000000000000000000000000000000000000000000000000000000005f52601160045260245ffd5b5f6129d982612069565b91507fffffffffffffffffffffffffffffffffffffffffffffffffffffffffffffffff8203612a0b57612a0a6129a2565b5b600182019050919050565b612a1f82611fd9565b67ffffffffffffffff811115612a3857612a3761249e565b5b612a4282546126ad565b612a4d8282856127fe565b5f60209050601f831160018114612a7e575f8415612a6c578287015190505b612a76858261286c565b865550612add565b601f198416612a8c866126e7565b5f5b82811015612ab357848901518255600182019150602085019450602081019050612a8e565b86831015612ad05784890151612acc601f891682612850565b8355505b6001600288020188555050505b505050505050565b5f606082019050612af85f8301866120f7565b612b056020830185612245565b612b1260408301846120f7565b949350505050565b5f612b2482612069565b9150612b2f83612069565b9250828202612b3d81612069565b91508282048414831517612b5457612b536129a2565b5b5092915050565b7f4e487b71000000000000000000000000000000000000000000000000000000005f52601260045260245ffd5b5f612b9282612069565b9150612b9d83612069565b925082612bad57612bac612b5b565b5b828204905092915050565b5f612bc282612069565b9150612bcd83612069565b9250828201905080821115612be557612be46129a2565b5b92915050565b5f612bf582612069565b9150612c0083612069565b9250828203905081811115612c1857612c176129a2565b5b92915050565b5f81519050919050565b5f82825260208201905092915050565b5f612c4282612c1e565b612c4c8185612c28565b9350612c5c818560208601611ff3565b612c6581612001565b840191505092915050565b5f608082019050612c835f8301876120f7565b612c9060208301866120f7565b612c9d6040830185612245565b8181036060830152612caf8184612c38565b905095945050505050565b5f81519050612cc881611f51565b92915050565b5f60208284031215612ce357612ce2611f1e565b5b5f612cf084828501612cba565b91505092915050565b5f604082019050612d0c5f8301856120f7565b612d196020830184612245565b939250505056fea2646970667358221220d9f451d4bb637bd5e37917677c39a3c8f16ec00f9e979bc032a020dfbf718d9964736f6c634300081e0033","linkReferences":{}},"methodIdentifiers":{"addStake(uint256)":"eb4f16b5","approve(address,uint256)":"095ea7b3","balanceOf(address)":"70a08231","getAgent(uint256)":"2de5aaf7","getApproved(uint256)":"081812fc","getScore(uint256)":"0e1af57b","getSuccessRate(uint256)":"8a650841","isActive(uint256)":"82afd23b","isApprovedForAll(address,address)":"e985e9c5","name()":"06fdde03","owner()":"8da5cb5b","ownerOf(uint256)":"6352211e","register()":"1aa3a008","renounceOwnership()":"715018a6","safeTransferFrom(address,address,uint256)":"42842e0e","safeTransferFrom(address,address,uint256,bytes)":"b88d4fde","setAgentURI(uint256,string)":"0af28bd3","setApprovalForAll(address,bool)":"a22cb465","supportsInterface(bytes4)":"01ffc9a7","symbol()":"95d89b41","tokenURI(uint256)":"c87b56dd","transferFrom(address,address,uint256)":"23b872dd","transferOwnership(address)":"f2fde38b","updateScore(uint256,bool)":"a2c16169"},"id":38}