{"abi":[{"type":"function","name":"execute","inputs":[{"name":"calls","type":"tuple[]","internalType":"struct MulticallExecutor.Call[]","components":[{"name":"target","type":"address","internalType":"address"},{"name":"data","type":"bytes","internalType":"bytes"},{"name":"value","type":"uint256","internalType":"uint256"}]}],"outputs":[],"stateMutability":"nonpayable"},{"type":"error","name":"CallFailed","inputs":[{"name":"index","type":"uint256","internalType":"uint256"},{"name":"target","type":"address","internalType":"address"}]}],"bytecode":{"object":"0x6080604052348015600e575f5ffd5b506104b38061001c5f395ff3fe608060405234801561000f575f5ffd5b5060043610610029575f3560e01c8063760f2a0b1461002d575b5f5ffd5b61004760048036038101906100429190610249565b610049565b005b5f5f90505b828290508110156101db575f83838381811061006d5761006c610294565b5b905060200281019061007f91906102cd565b5f016020810190610090919061034e565b73ffffffffffffffffffffffffffffffffffffffff168484848181106100b9576100b8610294565b5b90506020028101906100cb91906102cd565b604001358585858181106100e2576100e1610294565b5b90506020028101906100f491906102cd565b80602001906101039190610379565b604051610111929190610417565b5f6040518083038185875af1925050503d805f811461014b576040519150601f19603f3d011682016040523d82523d5f602084013e610150565b606091505b50509050806101cd578184848481811061016d5761016c610294565b5b905060200281019061017f91906102cd565b5f016020810190610190919061034e565b6040517f0ceb96f00000000000000000000000000000000000000000000000000000000081526004016101c4929190610456565b60405180910390fd5b50808060010191505061004e565b505050565b5f5ffd5b5f5ffd5b5f5ffd5b5f5ffd5b5f5ffd5b5f5f83601f840112610209576102086101e8565b5b8235905067ffffffffffffffff811115610226576102256101ec565b5b602083019150836020820283011115610242576102416101f0565b5b9250929050565b5f5f6020838503121561025f5761025e6101e0565b5b5f83013567ffffffffffffffff81111561027c5761027b6101e4565b5b610288858286016101f4565b92509250509250929050565b7f4e487b71000000000000000000000000000000000000000000000000000000005f52603260045260245ffd5b5f5ffd5b5f5ffd5b5f5ffd5b5f823560016060038336030381126102e8576102e76102c1565b5b80830191505092915050565b5f73ffffffffffffffffffffffffffffffffffffffff82169050919050565b5f61031d826102f4565b9050919050565b61032d81610313565b8114610337575f5ffd5b50565b5f8135905061034881610324565b92915050565b5f60208284031215610363576103626101e0565b5b5f6103708482850161033a565b91505092915050565b5f5f83356001602003843603038112610395576103946102c1565b5b80840192508235915067ffffffffffffffff8211156103b7576103b66102c5565b5b6020830192506001820236038313156103d3576103d26102c9565b5b509250929050565b5f81905092915050565b828183375f83830152505050565b5f6103fe83856103db565b935061040b8385846103e5565b82840190509392505050565b5f6104238284866103f3565b91508190509392505050565b5f819050919050565b6104418161042f565b82525050565b61045081610313565b82525050565b5f6040820190506104695f830185610438565b6104766020830184610447565b939250505056fea26469706673582212205392051409a3fe84b930944dc11aaf78805c4903a703c393c1b6a39ca05b7fc964736f6c634300081e0033","linkReferences":{}},"methodIdentifiers":{"execute((address,bytes,uint256)[])":"760f2a0b"},"id":24}