{"abi":[{"type":"constructor","inputs":[{"name":"_registry","type":"address","internalType":"address"},{"name":"_multicall","type":"address","internalType":"address"}],"stateMutability":"nonpayable"},{"type":"function","name":"MIN_REPUTATION","inputs":[],"outputs":[{"name":"","type":"uint256","internalType":"uint256"}],"stateMutability":"view"},{"type":"function","name":"executeStrategy","inputs":[{"name":"proposal","type":"tuple","internalType":"struct StrategyExecutor.StrategyProposal","components":[{"name":"vault","type":"address","internalType":"address"},{"name":"agent","type":"address","internalType":"address"},{"name":"calls","type":"tuple[]","internalType":"struct StrategyExecutor.Call[]","components":[{"name":"target","type":"address","internalType":"address"},{"name":"data","type":"bytes","internalType":"bytes"},{"name":"value","type":"uint256","internalType":"uint256"}]}]}],"outputs":[],"stateMutability":"nonpayable"},{"type":"function","name":"multicallExecutor","inputs":[],"outputs":[{"name":"","type":"address","internalType":"address"}],"stateMutability":"view"},{"type":"function","name":"registry","inputs":[],"outputs":[{"name":"","type":"address","internalType":"contract IERC8004"}],"stateMutability":"view"}],"bytecode":{"object":"0x608060405234801561000f575f5ffd5b50604051610ac2380380610ac283398181016040528101906100319190610115565b815f5f6101000a81548173ffffffffffffffffffffffffffffffffffffffff021916908373ffffffffffffffffffffffffffffffffffffffff1602179055508060015f6101000a81548173ffffffffffffffffffffffffffffffffffffffff021916908373ffffffffffffffffffffffffffffffffffffffff1602179055505050610153565b5f5ffd5b5f73ffffffffffffffffffffffffffffffffffffffff82169050919050565b5f6100e4826100bb565b9050919050565b6100f4816100da565b81146100fe575f5ffd5b50565b5f8151905061010f816100eb565b92915050565b5f5f6040838503121561012b5761012a6100b7565b5b5f61013885828601610101565b925050602061014985828601610101565b9150509250929050565b610962806101605f395ff3fe608060405234801561000f575f5ffd5b506004361061004a575f3560e01c80631c9f29ea1461004e578063697c60451461006a5780637b10399914610088578063cba2ef57146100a6575b5f5ffd5b6100686004803603810190610063919061029c565b6100c4565b005b61007261021a565b60405161007f91906102fb565b60405180910390f35b610090610220565b60405161009d919061038e565b60405180910390f35b6100ae610244565b6040516100bb91906103c7565b60405180910390f35b5f8180604001906100d591906103ec565b6040516024016100e69291906106ec565b6040516020818303038152906040527f760f2a0b000000000000000000000000000000000000000000000000000000007bffffffffffffffffffffffffffffffffffffffffffffffffffffffff19166020820180517bffffffffffffffffffffffffffffffffffffffffffffffffffffffff83818316178352505050509050815f016020810190610177919061070e565b73ffffffffffffffffffffffffffffffffffffffff1663b10cc72860015f9054906101000a900473ffffffffffffffffffffffffffffffffffffffff16836040518363ffffffff1660e01b81526004016101d2929190610799565b5f604051808303815f875af11580156101ed573d5f5f3e3d5ffd5b505050506040513d5f823e3d601f19601f8201168201806040525081019061021591906108e5565b505050565b61138881565b5f5f9054906101000a900473ffffffffffffffffffffffffffffffffffffffff1681565b60015f9054906101000a900473ffffffffffffffffffffffffffffffffffffffff1681565b5f604051905090565b5f5ffd5b5f5ffd5b5f5ffd5b5f606082840312156102935761029261027a565b5b81905092915050565b5f602082840312156102b1576102b0610272565b5b5f82013567ffffffffffffffff8111156102ce576102cd610276565b5b6102da8482850161027e565b91505092915050565b5f819050919050565b6102f5816102e3565b82525050565b5f60208201905061030e5f8301846102ec565b92915050565b5f73ffffffffffffffffffffffffffffffffffffffff82169050919050565b5f819050919050565b5f61035661035161034c84610314565b610333565b610314565b9050919050565b5f6103678261033c565b9050919050565b5f6103788261035d565b9050919050565b6103888161036e565b82525050565b5f6020820190506103a15f83018461037f565b92915050565b5f6103b182610314565b9050919050565b6103c1816103a7565b82525050565b5f6020820190506103da5f8301846103b8565b92915050565b5f5ffd5b5f5ffd5b5f5ffd5b5f5f83356001602003843603038112610408576104076103e0565b5b80840192508235915067ffffffffffffffff82111561042a576104296103e4565b5b602083019250602082023603831315610446576104456103e8565b5b509250929050565b5f82825260208201905092915050565b5f819050919050565b610470816103a7565b811461047a575f5ffd5b50565b5f8135905061048b81610467565b92915050565b5f61049f602084018461047d565b905092915050565b6104b0816103a7565b82525050565b5f5ffd5b5f5ffd5b5f5ffd5b5f5f833560016020038436030381126104de576104dd6104be565b5b83810192508235915060208301925067ffffffffffffffff821115610506576105056104b6565b5b60018202360383131561051c5761051b6104ba565b5b509250929050565b5f82825260208201905092915050565b828183375f83830152505050565b5f601f19601f8301169050919050565b5f61055d8385610524565b935061056a838584610534565b61057383610542565b840190509392505050565b610587816102e3565b8114610591575f5ffd5b50565b5f813590506105a28161057e565b92915050565b5f6105b66020840184610594565b905092915050565b6105c7816102e3565b82525050565b5f606083016105de5f840184610491565b6105ea5f8601826104a7565b506105f860208401846104c2565b858303602087015261060b838284610552565b9250505061061c60408401846105a8565b61062960408601826105be565b508091505092915050565b5f61063f83836105cd565b905092915050565b5f82356001606003833603038112610662576106616104be565b5b82810191505092915050565b5f602082019050919050565b5f610685838561044e565b9350836020840285016106978461045e565b805f5b878110156106da5784840389526106b18284610647565b6106bb8582610634565b94506106c68361066e565b925060208a0199505060018101905061069a565b50829750879450505050509392505050565b5f6020820190508181035f83015261070581848661067a565b90509392505050565b5f6020828403121561072357610722610272565b5b5f6107308482850161047d565b91505092915050565b5f81519050919050565b5f82825260208201905092915050565b8281835e5f83830152505050565b5f61076b82610739565b6107758185610743565b9350610785818560208601610753565b61078e81610542565b840191505092915050565b5f6040820190506107ac5f8301856103b8565b81810360208301526107be8184610761565b90509392505050565b5f5ffd5b5f5ffd5b7f4e487b71000000000000000000000000000000000000000000000000000000005f52604160045260245ffd5b61080582610542565b810181811067ffffffffffffffff82111715610824576108236107cf565b5b80604052505050565b5f610836610269565b905061084282826107fc565b919050565b5f67ffffffffffffffff821115610861576108606107cf565b5b61086a82610542565b9050602081019050919050565b5f61088961088484610847565b61082d565b9050828152602081018484840111156108a5576108a46107cb565b5b6108b0848285610753565b509392505050565b5f82601f8301126108cc576108cb6107c7565b5b81516108dc848260208601610877565b91505092915050565b5f602082840312156108fa576108f9610272565b5b5f82015167ffffffffffffffff81111561091757610916610276565b5b610923848285016108b8565b9150509291505056fea2646970667358221220765bb9a7277b1e60b5ebb83eac270f875d760f52b9b36d55004a2e2979405d3064736f6c634300081e0033","linkReferences":{}},"methodIdentifiers":{"MIN_REPUTATION()":"697c6045","executeStrategy((address,address,(address,bytes,uint256)[]))":"1c9f29ea","multicallExecutor()":"cba2ef57","registry()":"7b103999"},"id":21}