{
  "_format": "hh3-artifact-1",
  "contractName": "StrategyExecutor",
  "sourceName": "contracts/src/execution/StrategyExecutor.sol",
  "abi": [
    {
      "inputs": [
        {
          "internalType": "address",
          "name": "_registry",
          "type": "address"
        },
        {
          "internalType": "address",
          "name": "_multicall",
          "type": "address"
        }
      ],
      "stateMutability": "nonpayable",
      "type": "constructor"
    },
    {
      "inputs": [],
      "name": "MIN_REPUTATION",
      "outputs": [
        {
          "internalType": "uint256",
          "name": "",
          "type": "uint256"
        }
      ],
      "stateMutability": "view",
      "type": "function"
    },
    {
      "inputs": [
        {
          "components": [
            {
              "internalType": "address",
              "name": "vault",
              "type": "address"
            },
            {
              "internalType": "address",
              "name": "agent",
              "type": "address"
            },
            {
              "components": [
                {
                  "internalType": "address",
                  "name": "target",
                  "type": "address"
                },
                {
                  "internalType": "bytes",
                  "name": "data",
                  "type": "bytes"
                },
                {
                  "internalType": "uint256",
                  "name": "value",
                  "type": "uint256"
                }
              ],
              "internalType": "struct StrategyExecutor.Call[]",
              "name": "calls",
              "type": "tuple[]"
            }
          ],
          "internalType": "struct StrategyExecutor.StrategyProposal",
          "name": "proposal",
          "type": "tuple"
        }
      ],
      "name": "executeStrategy",
      "outputs": [],
      "stateMutability": "nonpayable",
      "type": "function"
    },
    {
      "inputs": [],
      "name": "multicallExecutor",
      "outputs": [
        {
          "internalType": "address",
          "name": "",
          "type": "address"
        }
      ],
      "stateMutability": "view",
      "type": "function"
    },
    {
      "inputs": [],
      "name": "registry",
      "outputs": [
        {
          "internalType": "contract IERC8004",
          "name": "",
          "type": "address"
        }
      ],
      "stateMutability": "view",
      "type": "function"
    }
  ],
  "bytecode": "0x6080604052348015600f57600080fd5b5060405161057b38038061057b833981016040819052602c916077565b600080546001600160a01b039384166001600160a01b0319918216179091556001805492909316911617905560a5565b80516001600160a01b0381168114607257600080fd5b919050565b60008060408385031215608957600080fd5b609083605c565b9150609c60208401605c565b90509250929050565b6104c7806100b46000396000f3fe608060405234801561001057600080fd5b506004361061004c5760003560e01c80631c9f29ea14610051578063697c6045146100665780637b10399914610082578063cba2ef57146100ad575b600080fd5b61006461005f366004610199565b6100c0565b005b61006f61138881565b6040519081526020015b60405180910390f35b600054610095906001600160a01b031681565b6040516001600160a01b039091168152602001610079565b600154610095906001600160a01b031681565b60006100cf60408301836101db565b6040516024016100e0929190610248565b60408051601f19818403018152919052602080820180516001600160e01b031663760f2a0b60e01b17905290915061011a90830183610345565b60015460405163162198e560e31b81526001600160a01b039283169263b10cc7289261014d929116908590600401610384565b6000604051808303816000875af115801561016c573d6000803e3d6000fd5b505050506040513d6000823e601f3d908101601f1916820160405261019491908101906103dc565b505050565b6000602082840312156101ab57600080fd5b813567ffffffffffffffff8111156101c257600080fd5b8201606081850312156101d457600080fd5b9392505050565b6000808335601e198436030181126101f257600080fd5b83018035915067ffffffffffffffff82111561020d57600080fd5b6020019150600581901b360382131561022557600080fd5b9250929050565b80356001600160a01b038116811461024357600080fd5b919050565b6020808252810182905260006040600584901b830181019083018583605e1936839003015b8782101561033857868503603f19018452823581811261028c57600080fd5b89016001600160a01b0361029f8261022c565b1686526020810135601e198236030181126102b957600080fd5b810160208101903567ffffffffffffffff8111156102d657600080fd5b8036038213156102e557600080fd5b60606020890152806060890152808260808a0137600088820160809081019190915260409384013593890193909352601f01601f191690960101945060209384019392909201916001919091019061026d565b5092979650505050505050565b60006020828403121561035757600080fd5b6101d48261022c565b60005b8381101561037b578181015183820152602001610363565b50506000910152565b60018060a01b038316815260406020820152600082518060408401526103b1816060850160208701610360565b601f01601f1916919091016060019392505050565b634e487b7160e01b600052604160045260246000fd5b6000602082840312156103ee57600080fd5b815167ffffffffffffffff81111561040557600080fd5b8201601f8101841361041657600080fd5b805167ffffffffffffffff811115610430576104306103c6565b604051601f8201601f19908116603f0116810167ffffffffffffffff8111828210171561045f5761045f6103c6565b60405281815282820160200186101561047757600080fd5b610488826020830160208601610360565b9594505050505056fea26469706673582212208eedaab3fd3af0b3ce8adafb524338928e30c35aafd93e11fc9a41d52fb3d2f964736f6c634300081c0033",
  "linkReferences": {},
  "deployedLinkReferences": {},
  "immutableReferences": {},
  "inputSourceName": "project/contracts/src/execution/StrategyExecutor.sol",
  "buildInfoId": "solc-0_8_28-4426893a20f774797e441340d892f8b98bd6b63f"
}