{
  "_format": "hh3-artifact-1",
  "contractName": "VaultFactory",
  "sourceName": "contracts/src/vault/VaultFactory.sol",
  "abi": [
    {
      "inputs": [],
      "name": "VaultAlreadyExists",
      "type": "error"
    },
    {
      "anonymous": false,
      "inputs": [
        {
          "indexed": true,
          "internalType": "address",
          "name": "user",
          "type": "address"
        },
        {
          "indexed": false,
          "internalType": "address",
          "name": "vault",
          "type": "address"
        }
      ],
      "name": "VaultCreated",
      "type": "event"
    },
    {
      "inputs": [],
      "name": "createVault",
      "outputs": [],
      "stateMutability": "nonpayable",
      "type": "function"
    },
    {
      "inputs": [
        {
          "internalType": "address",
          "name": "user",
          "type": "address"
        }
      ],
      "name": "getVault",
      "outputs": [
        {
          "internalType": "address",
          "name": "",
          "type": "address"
        }
      ],
      "stateMutability": "view",
      "type": "function"
    },
    {
      "inputs": [
        {
          "internalType": "address",
          "name": "user",
          "type": "address"
        }
      ],
      "name": "getVaultBalance",
      "outputs": [
        {
          "internalType": "uint256",
          "name": "",
          "type": "uint256"
        }
      ],
      "stateMutability": "view",
      "type": "function"
    },
    {
      "inputs": [
        {
          "internalType": "address",
          "name": "",
          "type": "address"
        }
      ],
      "name": "userVaults",
      "outputs": [
        {
          "internalType": "address",
          "name": "",
          "type": "address"
        }
      ],
      "stateMutability": "view",
      "type": "function"
    }
  ],
  "bytecode": "0x6080604052348015600f57600080fd5b50610b828061001f6000396000f3fe608060405234801561001057600080fd5b506004361061004c5760003560e01c80630eb9af38146100515780632958d0311461009a5780635d12928b146100c3578063d3d7c002146100cd575b600080fd5b61007d61005f366004610273565b6001600160a01b039081166000908152602081905260409020541690565b6040516001600160a01b0390911681526020015b60405180910390f35b61007d6100a8366004610273565b6000602081905290815260409020546001600160a01b031681565b6100cb6100ee565b005b6100e06100db366004610273565b6101c6565b604051908152602001610091565b336000908152602081905260409020546001600160a01b031615610125576040516304aabf3360e01b815260040160405180910390fd5b60003360405161013490610266565b6001600160a01b039091168152602001604051809103906000f080158015610160573d6000803e3d6000fd5b50336000818152602081815260409182902080546001600160a01b0319166001600160a01b038616908117909155915191825292935090917f5d9c31ffa0fecffd7cf379989a3c7af252f0335e0d2a1320b55245912c781f53910160405180910390a250565b6001600160a01b03808216600090815260208190526040812054909116806101f15750600092915050565b60405163f8b2cb4f60e01b81526001600160a01b03848116600483015282919082169063f8b2cb4f90602401602060405180830381865afa15801561023a573d6000803e3d6000fd5b505050506040513d601f19601f8201168201806040525081019061025e91906102a3565b949350505050565b610890806102bd83390190565b60006020828403121561028557600080fd5b81356001600160a01b038116811461029c57600080fd5b9392505050565b6000602082840312156102b557600080fd5b505191905056fe6080604052348015600f57600080fd5b50604051610890380380610890833981016040819052602c916050565b600180546001600160a01b0319166001600160a01b0392909216919091179055607e565b600060208284031215606157600080fd5b81516001600160a01b0381168114607757600080fd5b9392505050565b6108038061008d6000396000f3fe6080604052600436106100865760003560e01c80638da5cb5b116100595780638da5cb5b14610149578063b10cc72814610169578063d1be9c6714610196578063f3fef3a3146101b6578063f8b2cb4f146101d657600080fd5b8063240ff7671461008b57806327e235e3146100c857806347e7ef24146101035780635a33312b14610118575b600080fd5b34801561009757600080fd5b506002546100ab906001600160a01b031681565b6040516001600160a01b0390911681526020015b60405180910390f35b3480156100d457600080fd5b506100f56100e33660046105ca565b60006020819052908152604090205481565b6040519081526020016100bf565b6101166101113660046105ec565b61020c565b005b34801561012457600080fd5b5060025461013990600160a01b900460ff1681565b60405190151581526020016100bf565b34801561015557600080fd5b506001546100ab906001600160a01b031681565b34801561017557600080fd5b5061018961018436600461062c565b610317565b6040516100bf919061071a565b3480156101a257600080fd5b506101166101b13660046105ca565b610419565b3480156101c257600080fd5b506101166101d13660046105ec565b610465565b3480156101e257600080fd5b506100f56101f13660046105ca565b6001600160a01b031660009081526020819052604090205490565b6001546001600160a01b03163314610236576040516282b42960e81b815260040160405180910390fd5b6040516323b872dd60e01b8152336004820152306024820152604481018290526001600160a01b038316906323b872dd906064016020604051808303816000875af1158015610289573d6000803e3d6000fd5b505050506040513d601f19601f820116820180604052508101906102ad919061074d565b5033600090815260208190526040812080548392906102cd908490610785565b90915550506040518181526001600160a01b0383169033907f5548c837ab068cf56a2c2479df0882a4922fd203edb7517321831d95078c5f62906020015b60405180910390a35050565b6002546060906001600160a01b03163314610344576040516282b42960e81b815260040160405180910390fd5b6002805460ff60a01b1916600160a01b17905560405160009081906001600160a01b0386169061037590869061079e565b600060405180830381855af49150503d80600081146103b0576040519150601f19603f3d011682016040523d82523d6000602084013e6103b5565b606091505b506002805460ff60a01b191690559092509050816104115760405162461bcd60e51b815260206004820152601460248201527311195b1959d85d194818d85b1b0819985a5b195960621b60448201526064015b60405180910390fd5b505092915050565b6001546001600160a01b03163314610443576040516282b42960e81b815260040160405180910390fd5b600280546001600160a01b0319166001600160a01b0392909216919091179055565b6001546001600160a01b0316331461048f576040516282b42960e81b815260040160405180910390fd5b336000908152602081905260409020548111156104db57336000908152602081905260409081902054905163cf47918160e01b8152610408918391600401918252602082015260400190565b33600090815260208190526040812080548392906104fa9084906107ba565b909155505060405163a9059cbb60e01b8152336004820152602481018290526001600160a01b0383169063a9059cbb906044016020604051808303816000875af115801561054c573d6000803e3d6000fd5b505050506040513d601f19601f82011682018060405250810190610570919061074d565b506040518181526001600160a01b0383169033907f9b1bfa7fa9ee420a16e124f794c35ac9f90472acc99140eb2f6447c714cad8eb9060200161030b565b80356001600160a01b03811681146105c557600080fd5b919050565b6000602082840312156105dc57600080fd5b6105e5826105ae565b9392505050565b600080604083850312156105ff57600080fd5b610608836105ae565b946020939093013593505050565b634e487b7160e01b600052604160045260246000fd5b6000806040838503121561063f57600080fd5b610648836105ae565b9150602083013567ffffffffffffffff81111561066457600080fd5b8301601f8101851361067557600080fd5b803567ffffffffffffffff81111561068f5761068f610616565b604051601f8201601f19908116603f0116810167ffffffffffffffff811182821017156106be576106be610616565b6040528181528282016020018710156106d657600080fd5b816020840160208301376000602083830101528093505050509250929050565b60005b838110156107115781810151838201526020016106f9565b50506000910152565b60208152600082518060208401526107398160408501602087016106f6565b601f01601f19169190910160400192915050565b60006020828403121561075f57600080fd5b815180151581146105e557600080fd5b634e487b7160e01b600052601160045260246000fd5b808201808211156107985761079861076f565b92915050565b600082516107b08184602087016106f6565b9190910192915050565b818103818111156107985761079861076f56fea2646970667358221220094a1372fac1a3db14daa650ce21ddf7474eeeda41ff94528b5b40e5c283afc764736f6c634300081c0033a264697066735822122072f9082d37c839a27719cda836d18cbb48b5774cdaf4f1da946ba293a813bf8264736f6c634300081c0033",
  "linkReferences": {},
  "deployedLinkReferences": {},
  "immutableReferences": {},
  "inputSourceName": "project/contracts/src/vault/VaultFactory.sol",
  "buildInfoId": "solc-0_8_28-4426893a20f774797e441340d892f8b98bd6b63f"
}